{
  "contractName": "AccessControl",
  "abi": [
    {
      "inputs": [],
      "stateMutability": "nonpayable",
      "type": "constructor"
    },
    {
      "anonymous": false,
      "inputs": [
        {
          "indexed": false,
          "internalType": "address",
          "name": "patient",
          "type": "address"
        },
        {
          "indexed": false,
          "internalType": "address",
          "name": "doctor",
          "type": "address"
        }
      ],
      "name": "AccessGranted",
      "type": "event"
    },
    {
      "anonymous": false,
      "inputs": [
        {
          "indexed": false,
          "internalType": "address",
          "name": "patient",
          "type": "address"
        },
        {
          "indexed": false,
          "internalType": "address",
          "name": "doctor",
          "type": "address"
        }
      ],
      "name": "AccessRevoked",
      "type": "event"
    },
    {
      "inputs": [
        {
          "internalType": "address",
          "name": "",
          "type": "address"
        }
      ],
      "name": "doctors",
      "outputs": [
        {
          "internalType": "bool",
          "name": "hasAccess",
          "type": "bool"
        }
      ],
      "stateMutability": "view",
      "type": "function",
      "constant": true
    },
    {
      "inputs": [],
      "name": "owner",
      "outputs": [
        {
          "internalType": "address",
          "name": "",
          "type": "address"
        }
      ],
      "stateMutability": "view",
      "type": "function",
      "constant": true
    },
    {
      "inputs": [
        {
          "internalType": "address",
          "name": "",
          "type": "address"
        }
      ],
      "name": "patients",
      "outputs": [
        {
          "internalType": "bool",
          "name": "",
          "type": "bool"
        }
      ],
      "stateMutability": "view",
      "type": "function",
      "constant": true
    },
    {
      "inputs": [
        {
          "internalType": "address",
          "name": "_doctor",
          "type": "address"
        }
      ],
      "name": "grantAccess",
      "outputs": [],
      "stateMutability": "nonpayable",
      "type": "function"
    },
    {
      "inputs": [
        {
          "internalType": "address",
          "name": "_doctor",
          "type": "address"
        }
      ],
      "name": "revokeAccess",
      "outputs": [],
      "stateMutability": "nonpayable",
      "type": "function"
    }
  ],
  "bytecode": "0x608060405234801561001057600080fd5b50336000806101000a81548173ffffffffffffffffffffffffffffffffffffffff021916908373ffffffffffffffffffffffffffffffffffffffff1602179055506105cd806100606000396000f3fe608060405234801561001057600080fd5b50600436106100575760003560e01c80630869cfbc1461005c5780630ae5e7391461008c57806385e68531146100a85780638da5cb5b146100c4578063a9583c22146100e2575b600080fd5b6100766004803603810190610071919061043e565b610112565b6040516100839190610486565b60405180910390f35b6100a660048036038101906100a1919061043e565b610132565b005b6100c260048036038101906100bd919061043e565b61026e565b005b6100cc61038c565b6040516100d991906104b0565b60405180910390f35b6100fc60048036038101906100f7919061043e565b6103b0565b6040516101099190610486565b60405180910390f35b60026020528060005260406000206000915054906101000a900460ff1681565b600260003373ffffffffffffffffffffffffffffffffffffffff1673ffffffffffffffffffffffffffffffffffffffff16815260200190815260200160002060009054906101000a900460ff166101be576040517f08c379a00000000000000000000000000000000000000000000000000000000081526004016101b59061054e565b60405180910390fd5b604051806020016040528060011515815250600160008373ffffffffffffffffffffffffffffffffffffffff1673ffffffffffffffffffffffffffffffffffffffff16815260200190815260200160002060008201518160000160006101000a81548160ff0219169083151502179055509050507f9f520b3bfc56d06f7065d10b4683b3f57ac8895d5026cd176dee95ce1454cb8d338260405161026392919061056e565b60405180910390a150565b600260003373ffffffffffffffffffffffffffffffffffffffff1673ffffffffffffffffffffffffffffffffffffffff16815260200190815260200160002060009054906101000a900460ff166102fa576040517f08c379a00000000000000000000000000000000000000000000000000000000081526004016102f19061054e565b60405180910390fd5b600160008273ffffffffffffffffffffffffffffffffffffffff1673ffffffffffffffffffffffffffffffffffffffff168152602001908152602001600020600080820160006101000a81549060ff021916905550507f825c8be24eb0df19500f63e86c29e7d0d951e73056b889b891d85e40938d9b6e338260405161038192919061056e565b60405180910390a150565b60008054906101000a900473ffffffffffffffffffffffffffffffffffffffff1681565b60016020528060005260406000206000915090508060000160009054906101000a900460ff16905081565b600080fd5b600073ffffffffffffffffffffffffffffffffffffffff82169050919050565b600061040b826103e0565b9050919050565b61041b81610400565b811461042657600080fd5b50565b60008135905061043881610412565b92915050565b600060208284031215610454576104536103db565b5b600061046284828501610429565b91505092915050565b60008115159050919050565b6104808161046b565b82525050565b600060208201905061049b6000830184610477565b92915050565b6104aa81610400565b82525050565b60006020820190506104c560008301846104a1565b92915050565b600082825260208201905092915050565b7f4f6e6c792070617469656e74732063616e2063616c6c20746869732066756e6360008201527f74696f6e00000000000000000000000000000000000000000000000000000000602082015250565b60006105386024836104cb565b9150610543826104dc565b604082019050919050565b600060208201905081810360008301526105678161052b565b9050919050565b600060408201905061058360008301856104a1565b61059060208301846104a1565b939250505056fea26469706673582212200097a3153d1249b38249eed77cbfdd728c2287696c65faf4ade375a5bb1b32c464736f6c634300080d0033",
  "immutableReferences": {},
  "source": "// SPDX-License-Identifier: MIT\r\npragma solidity >=0.4.22 <0.9.0;\r\n\r\ncontract AccessControl {\r\n    address public owner;\r\n\r\n    struct Doctor {\r\n        bool hasAccess;\r\n    }\r\n\r\n    mapping(address => Doctor) public doctors;\r\n    mapping(address => bool) public patients;\r\n\r\n    event AccessGranted(address patient, address doctor);\r\n    event AccessRevoked(address patient, address doctor);\r\n\r\n    constructor() {\r\n        owner = msg.sender;\r\n    }\r\n\r\n    modifier onlyOwner() {\r\n        require(msg.sender == owner, \"Only owner can call this function\");\r\n        _;\r\n    }\r\n\r\n    modifier onlyPatient() {\r\n        require(patients[msg.sender], \"Only patients can call this function\");\r\n        _;\r\n    }\r\n\r\n    modifier onlyDoctor() {\r\n        require(doctors[msg.sender].hasAccess, \"Only doctors with access can call this function\");\r\n        _;\r\n    }\r\n\r\n    function grantAccess(address _doctor) public onlyPatient {\r\n        doctors[_doctor] = Doctor(true);\r\n        emit AccessGranted(msg.sender, _doctor);\r\n    }\r\n\r\n    function revokeAccess(address _doctor) public onlyPatient {\r\n        delete doctors[_doctor];\r\n        emit AccessRevoked(msg.sender, _doctor);\r\n    }\r\n}\r\n",
  "sourcePath": "C:\\Users\\ASUS\\Desktop\\backend\\smartcontracts\\contracts\\AccessControl.sol",
  "compiler": {
    "name": "solc",
    "version": "0.8.13+commit.abaa5c0e.Emscripten.clang"
  },
  "schemaVersion": "3.4.16",
  "updatedAt": "2024-02-13T09:06:04.363Z",
  "networkType": "ethereum",
  "devdoc": {
    "kind": "dev",
    "methods": {},
    "version": 1
  },
  "userdoc": {
    "kind": "user",
    "methods": {},
    "version": 1
  }
}